:020000040000fa
:080000000002040000000000f2
:020000040000fa
:04000800f4030000fd
:020000040000fa
:04000c00720300007b
:020000040000fa
:04001000b403000035
:020000040000fa
:040014009203000053
:020000040000fa
:04001800d40300000d
:020000040000fa
:04001c00f4030000e9
:020000040000fa
:04002000f4030000e5
:020000040000fa
:04002400f4030000e1
:020000040000fa
:04002800c80200000a
:020000040000fa
:04002c00f4030000d9
:020000040000fa
:04003000f4030000d5
:020000040000fa
:04003400f4030000d1
:020000040000fa
:04003800f4030000cd
:020000040000fa
:04003c00f4030000c9
:020000040000fa
:04004000f4030000c5
:020000040000fa
:04004400f4030000c1
:020000040000fa
:04004800f4030000bd
:020000040000fa
:04004c00f4030000b9
:020000040000fa
:04005000f4030000b5
:020000040000fa
:04005400f4030000b1
:020000040000fa
:04005800f4030000ad
:020000040000fa
:04005c00f4030000a9
:020000040000fa
:04006000f4030000a5
:020000040000fa
:04006400f4030000a1
:020000040000fa
:04006800f40300009d
:020000040000fa
:04006c00f403000099
:020000040000fa
:04007000f403000095
:020000040000fa
:040074005e03000027
:020000040000fa
:04007800e60200009c
:020000040000fa
:04007c00f403000089
:020000040000fa
:04008000f403000085
:020000040000fa
:04008400f403000081
:020000040000fa
:04008800f40300007d
:020000040000fa
:04008c00f403000079
:020000040000fa
:04009000f403000075
:020000040000fa
:04009400f403000071
:020000040000fa
:04009800f40300006d
:020000040000fa
:04009c000403000059
:020000040000fa
:0400a000f403000065
:020000040000fa
:0400a400f403000061
:020000040000fa
:0400a800f40300005d
:020000040000fa
:0400ac00f403000059
:020000040000fa
:0400b000f403000055
:020000040000fa
:0400b400f403000051
:020000040000fa
:0400b800f40300004d
:020000040000fa
:0400bc00f403000049
:020000040000fa
:0400c000f403000045
:020000040000fa
:0400c400f403000041
:020000040000fa
:0400c800f40300003d
:020000040000fa
:0400cc00f403000039
:020000040000fa
:0400d000f403000035
:020000040000fa
:0400d400f403000031
:020000040000fa
:0400d800f40300002d
:020000040000fa
:0400dc00f403000029
:020000040000fa
:0400e000f403000025
:020000040000fa
:0400e400f403000021
:020000040000fa
:0400e800f40300001d
:020000040000fa
:0400ec00f403000019
:020000040000fa
:0400f000f403000015
:020000040000fa
:0400f400f403000011
:020000040000fa
:0400f800f40300000d
:020000040000fa
:0400fc0022030000db
:020000040000fa
:0401000040030000b8
:020000040000fa
:04010400f403000000
:020000040000fa
:04010800f4030000fc
:020000040000fa
:04010c00f4030000f8
:020000040000fa
:04011000f4030000f4
:020000040000fa
:04011400f4030000f0
:020000040000fa
:04011800f4030000ec
:020000040000fa
:04011c00f4030000e8
:020000040000fa
:04012000f4030000e4
:020000040000fa
:04012400f4030000e0
:020000040000fa
:04012800f4030000dc
:020000040000fa
:04012c00f4030000d8
:020000040000fa
:04013000f4030000d4
:020000040000fa
:04013400f4030000d0
:020000040000fa
:04020800f4030000fb
:020000040000fa
:04020c007203000079
:020000040000fa
:04021000b403000033
:020000040000fa
:040214009203000051
:020000040000fa
:04021800d40300000b
:020000040000fa
:04021c00f4030000e7
:020000040000fa
:04022000f4030000e3
:020000040000fa
:04022400f4030000df
:020000040000fa
:04022800c802000008
:020000040000fa
:04022c00f4030000d7
:020000040000fa
:04023000f4030000d3
:020000040000fa
:04023400f4030000cf
:020000040000fa
:04023800f4030000cb
:020000040000fa
:04023c00f4030000c7
:020000040000fa
:04024000f4030000c3
:020000040000fa
:04024400f4030000bf
:020000040000fa
:04024800f4030000bb
:020000040000fa
:04024c00f4030000b7
:020000040000fa
:04025000f4030000b3
:020000040000fa
:04025400f4030000af
:020000040000fa
:04025800f4030000ab
:020000040000fa
:04025c00f4030000a7
:020000040000fa
:04026000f4030000a3
:020000040000fa
:04026400f40300009f
:020000040000fa
:04026800f40300009b
:020000040000fa
:04026c00f403000097
:020000040000fa
:04027000f403000093
:020000040000fa
:040274005e03000025
:020000040000fa
:04027800e60200009a
:020000040000fa
:04027c00f403000087
:020000040000fa
:04028000f403000083
:020000040000fa
:04028400f40300007f
:020000040000fa
:04028800f40300007b
:020000040000fa
:04028c00f403000077
:020000040000fa
:04029000f403000073
:020000040000fa
:04029400f40300006f
:020000040000fa
:04029800f40300006b
:020000040000fa
:04029c000403000057
:020000040000fa
:0402a000f403000063
:020000040000fa
:0402a400f40300005f
:020000040000fa
:0402a800f40300005b
:020000040000fa
:0402ac00f403000057
:020000040000fa
:0402b000f403000053
:020000040000fa
:0402b400f40300004f
:020000040000fa
:0402b800f40300004b
:020000040000fa
:0402bc00f403000047
:020000040000fa
:0402c000f403000043
:020000040000fa
:0402c400f40300003f
:020000040000fa
:0402c800f40300003b
:020000040000fa
:0402cc00f403000037
:020000040000fa
:0402d000f403000033
:020000040000fa
:0402d400f40300002f
:020000040000fa
:0402d800f40300002b
:020000040000fa
:0402dc00f403000027
:020000040000fa
:0402e000f403000023
:020000040000fa
:0402e400f40300001f
:020000040000fa
:0402e800f40300001b
:020000040000fa
:0402ec00f403000017
:020000040000fa
:0402f000f403000013
:020000040000fa
:0402f400f40300000f
:020000040000fa
:0402f800f40300000b
:020000040000fa
:0402fc0022030000d9
:020000040000fa
:0403000040030000b6
:020000040000fa
:04030400f4030000fe
:020000040000fa
:04030800f4030000fa
:020000040000fa
:04030c00f4030000f6
:020000040000fa
:04031000f4030000f2
:020000040000fa
:04031400f4030000ee
:020000040000fa
:04031800f4030000ea
:020000040000fa
:04031c00f4030000e6
:020000040000fa
:04032000f4030000e2
:020000040000fa
:04032400f4030000de
:020000040000fa
:04032800f4030000da
:020000040000fa
:04032c00f4030000d6
:020000040000fa
:04033000f4030000d2
:020000040000fa
:04033400f4030000ce
:020000040000fa
:100400002f8220000e7f22000e01880000000000d5
:10041000000020000000e000020032000001200087
:100420002002880014000700f10007000000e0002f
:1004300003003a00005220000100200002003700b3
:100440000000200001002000810f70000100320038
:1004500014000700000020000000e000020032004d
:10046000000002000000000018050200000000006b
:100470000040da000000fe004440a9000000200017
:100480000000e0000300320000002000a00188000e
:100490004440a800000006008a1f78008b1f7800e7
:1004a0000000060091018800800478000000eb0045
:1004b0001a003700e284440032a0b4009905ba0063
:1004c000e284440032a0b4009906ba00e2844400f9
:1004d00032a0b4000006eb00476fde00fd07b2005b
:1004e000636ce10003003a00ebff07000000eb0043
:1004f0000a003700606ce10004003a00005deb0088
:100500008b05e900fdff3e00040037006168e10053
:10051000010032000086eb000b00070019c7ba008b
:100520001905ba000e04e00003003a000a00e000da
:10053000e0ff3a0000000600fe07b2009e018800be
:100540008a047800f5ff3700395dba008b05e900b1
:100550000c003200295dba008b05e900080032006a
:100560000c00e00003003a00e284440032a0b40032
:10057000f5ff370019ddba008b05e900faff3a00f4
:100580008904e800e184440032a0b40000000600c1
:100590003600f800809fbe00829fbe00849fbe0090
:1005a000869fbe000000fa00920007008400a900a8
:1005b0000080fa004f03be004f02be004f01be0094
:1005c0004f00be003600f900004006003600f8007b
:1005d000809fbe00829fbe00849fbe00869fbe009b
:1005e0000000fa00920007008680a9000080fa004f
:1005f0004f03be004f02be004f01be004f00be00c1
:100600003600f900004006003600f800809fbe006a
:10061000829fbe00849fbe00869fbe000000fa003d
:100620008600070087a0a9000080fa004f03be00e3
:100630004f02be004f01be004f00be003600f90061
:10064000004006003600f800809fbe00829fbe007a
:10065000849fbe00869fbe000000fa007a0007005b
:100660008aa0a9000080fa004f03be004f02be001e
:100670004f01be004f00be003600f90000400600ea
:100680003600f800809fbe00829fbe00849fbe009f
:10069000869fbe000000fa006e0007008ac0a90015
:1006a0000080fa004f03be004f02be004f01be00a3
:1006b0004f00be003600f90000400600801f7800a1
:1006c0000000fa0030048000680060000000e000d4
:1006d000010032008660a9000080fa004f00780017
:1006e000004006003600f800809fbe00829fbe00da
:1006f000849fbe00869fbe000000fa008020a900f3
:100700000000eb00b70007000080fa004f03be00b6
:100710004f02be004f01be004f00be003600f90080
:10072000004006003600f800809fbe00829fbe0099
:10073000849fbe00869fbe000000fa00ae00070046
:100740008040a90010002000a60007000080fa00e9
:100750004f03be004f02be004f01be004f00be005f
:100760003600f900004006003600f800809fbe0009
:10077000829fbe00849fbe00869fbe000000fa00dc
:100780008060a90020002000960007000080fa0089
:100790004f03be004f02be004f01be004f00be001f
:1007a0003600f900004006003600f800809fbe00c9
:1007b000829fbe00849fbe00869fbe000000fa009c
:1007c0008080a90030002000860007000080fa0029
:1007d0004f03be004f02be004f01be004f00be00df
:1007e0003600f900004006000040da000000fe007c
:0407f0000000050000
:020000040000fa
:1007f4000000fa00e01680004300de006140600063
:100804000004a200614060000080fb006100600001
:100814004300dd00e11680000130a10001007000fa
:10082400e01688000080fa00000006000000fa00cc
:100834000080fa00000006000000fa000080fa00c0
:10084400000006000000fa000080fa000000060024
:100854000000fa000080fa00000006000000fa0020
:100864008400a9008200a8009400a8008680a90042
:100874008220a8009680a80087a0a9008240a80032
:1008840097a0a8008aa0a9008260a9008ac0a90034
:100894008280a9000080fa00000006000000fa002f
:1008a400c422ef00ca22ef00d022ef00d622ef00cc
:1008b400dc22ef00e222ef00e822ef00f06f2c00d0
:1008c400001688000080eb0030168800e001270045
:1008d400601688000080eb0090168800703f2000ae
:1008e400c0168800f01f2300f0168800f03c2f008b
:1008f400201788006820ef006a20ef00c026ef0070
:10090400c626ef00cc26ef00d226ef00d826ef0053
:10091400de26ef00e426ef00000c200060198800ba
:100924000080fa00000006000000fa000010230016
:10093400203a88004827ef007027ef007227ef0065
:100944007427ef007200200080072000a109200016
:100954003374200080497800814978008249780006
:100964000001eb00600420007105200023742000c6
:100974008049780081497800824978000080fa0033
:10098400000006000000fa002105800080ff2f000f
:10099400008060000000a000200588007105800030
:1009a40080ff2f00008060000000a0007005880018
:1009b40091058000f0f82f00008060000040a00046
:1009c4009005880061058000f0ff28000080600029
:1009d40000c0a000600588000080fa000000060046
:1009e4000200fa00000f78009e00780001408800a1
:1009f400ffff37000000fa00208020008007780005
:100a0400a0812000000188000080fa000000060098
:100a14000000fa000600fc0011028000f141b2005f
:100a2400110288000080fa00000006000000fa00ad
:0c0a34000a000700f6ff0700ffff370074
:020000040000fa
:100a40000208000020000000000000000008000074
:100a50000200000002000000ffff00000000000094
:020000040000fa
:100a60000000fa008eff0700b0ff0700c6ff070076
:0c0a70007bff07000080fa000000060079
:020000040000fa
:020000040002f8
:04aff800bf7f000017
:020000040000fa
:020000040002f8
:04affc007f3f000093
:00000001FF
